{
  "_format": "hh-sol-artifact-1",
  "contractName": "OrganisationToken",
  "sourceName": "contracts/OrganisationToken.sol",
  "abi": [
    {
      "inputs": [
        {
          "internalType": "address",
          "name": "_circlesHub",
          "type": "address"
        },
        {
          "internalType": "address",
          "name": "initialOwner",
          "type": "address"
        }
      ],
      "stateMutability": "nonpayable",
      "type": "constructor"
    },
    {
      "inputs": [
        {
          "internalType": "address",
          "name": "spender",
          "type": "address"
        },
        {
          "internalType": "uint256",
          "name": "allowance",
          "type": "uint256"
        },
        {
          "internalType": "uint256",
          "name": "needed",
          "type": "uint256"
        }
      ],
      "name": "ERC20InsufficientAllowance",
      "type": "error"
    },
    {
      "inputs": [
        {
          "internalType": "address",
          "name": "sender",
          "type": "address"
        },
        {
          "internalType": "uint256",
          "name": "balance",
          "type": "uint256"
        },
        {
          "internalType": "uint256",
          "name": "needed",
          "type": "uint256"
        }
      ],
      "name": "ERC20InsufficientBalance",
      "type": "error"
    },
    {
      "inputs": [
        {
          "internalType": "address",
          "name": "approver",
          "type": "address"
        }
      ],
      "name": "ERC20InvalidApprover",
      "type": "error"
    },
    {
      "inputs": [
        {
          "internalType": "address",
          "name": "receiver",
          "type": "address"
        }
      ],
      "name": "ERC20InvalidReceiver",
      "type": "error"
    },
    {
      "inputs": [
        {
          "internalType": "address",
          "name": "sender",
          "type": "address"
        }
      ],
      "name": "ERC20InvalidSender",
      "type": "error"
    },
    {
      "inputs": [
        {
          "internalType": "address",
          "name": "spender",
          "type": "address"
        }
      ],
      "name": "ERC20InvalidSpender",
      "type": "error"
    },
    {
      "inputs": [
        {
          "internalType": "address",
          "name": "owner",
          "type": "address"
        }
      ],
      "name": "OwnableInvalidOwner",
      "type": "error"
    },
    {
      "inputs": [
        {
          "internalType": "address",
          "name": "account",
          "type": "address"
        }
      ],
      "name": "OwnableUnauthorizedAccount",
      "type": "error"
    },
    {
      "anonymous": false,
      "inputs": [
        {
          "indexed": true,
          "internalType": "address",
          "name": "owner",
          "type": "address"
        },
        {
          "indexed": true,
          "internalType": "address",
          "name": "spender",
          "type": "address"
        },
        {
          "indexed": false,
          "internalType": "uint256",
          "name": "value",
          "type": "uint256"
        }
      ],
      "name": "Approval",
      "type": "event"
    },
    {
      "anonymous": false,
      "inputs": [
        {
          "indexed": true,
          "internalType": "address",
          "name": "previousOwner",
          "type": "address"
        },
        {
          "indexed": true,
          "internalType": "address",
          "name": "newOwner",
          "type": "address"
        }
      ],
      "name": "OwnershipTransferred",
      "type": "event"
    },
    {
      "anonymous": false,
      "inputs": [
        {
          "indexed": true,
          "internalType": "address",
          "name": "from",
          "type": "address"
        },
        {
          "indexed": true,
          "internalType": "address",
          "name": "to",
          "type": "address"
        },
        {
          "indexed": false,
          "internalType": "uint256",
          "name": "value",
          "type": "uint256"
        }
      ],
      "name": "Transfer",
      "type": "event"
    },
    {
      "inputs": [
        {
          "internalType": "address",
          "name": "owner",
          "type": "address"
        },
        {
          "internalType": "address",
          "name": "spender",
          "type": "address"
        }
      ],
      "name": "allowance",
      "outputs": [
        {
          "internalType": "uint256",
          "name": "",
          "type": "uint256"
        }
      ],
      "stateMutability": "view",
      "type": "function"
    },
    {
      "inputs": [
        {
          "internalType": "address",
          "name": "spender",
          "type": "address"
        },
        {
          "internalType": "uint256",
          "name": "value",
          "type": "uint256"
        }
      ],
      "name": "approve",
      "outputs": [
        {
          "internalType": "bool",
          "name": "",
          "type": "bool"
        }
      ],
      "stateMutability": "nonpayable",
      "type": "function"
    },
    {
      "inputs": [
        {
          "internalType": "address",
          "name": "account",
          "type": "address"
        }
      ],
      "name": "balanceOf",
      "outputs": [
        {
          "internalType": "uint256",
          "name": "",
          "type": "uint256"
        }
      ],
      "stateMutability": "view",
      "type": "function"
    },
    {
      "inputs": [],
      "name": "circlesHub",
      "outputs": [
        {
          "internalType": "contract IHub",
          "name": "",
          "type": "address"
        }
      ],
      "stateMutability": "view",
      "type": "function"
    },
    {
      "inputs": [],
      "name": "decimals",
      "outputs": [
        {
          "internalType": "uint8",
          "name": "",
          "type": "uint8"
        }
      ],
      "stateMutability": "view",
      "type": "function"
    },
    {
      "inputs": [],
      "name": "name",
      "outputs": [
        {
          "internalType": "string",
          "name": "",
          "type": "string"
        }
      ],
      "stateMutability": "view",
      "type": "function"
    },
    {
      "inputs": [],
      "name": "owner",
      "outputs": [
        {
          "internalType": "address",
          "name": "",
          "type": "address"
        }
      ],
      "stateMutability": "view",
      "type": "function"
    },
    {
      "inputs": [],
      "name": "renounceOwnership",
      "outputs": [],
      "stateMutability": "nonpayable",
      "type": "function"
    },
    {
      "inputs": [],
      "name": "symbol",
      "outputs": [
        {
          "internalType": "string",
          "name": "",
          "type": "string"
        }
      ],
      "stateMutability": "view",
      "type": "function"
    },
    {
      "inputs": [],
      "name": "totalSupply",
      "outputs": [
        {
          "internalType": "uint256",
          "name": "",
          "type": "uint256"
        }
      ],
      "stateMutability": "view",
      "type": "function"
    },
    {
      "inputs": [
        {
          "internalType": "address",
          "name": "to",
          "type": "address"
        },
        {
          "internalType": "uint256",
          "name": "value",
          "type": "uint256"
        }
      ],
      "name": "transfer",
      "outputs": [
        {
          "internalType": "bool",
          "name": "",
          "type": "bool"
        }
      ],
      "stateMutability": "nonpayable",
      "type": "function"
    },
    {
      "inputs": [
        {
          "internalType": "address",
          "name": "from",
          "type": "address"
        },
        {
          "internalType": "address",
          "name": "to",
          "type": "address"
        },
        {
          "internalType": "uint256",
          "name": "value",
          "type": "uint256"
        }
      ],
      "name": "transferFrom",
      "outputs": [
        {
          "internalType": "bool",
          "name": "",
          "type": "bool"
        }
      ],
      "stateMutability": "nonpayable",
      "type": "function"
    },
    {
      "inputs": [
        {
          "internalType": "address",
          "name": "newOwner",
          "type": "address"
        }
      ],
      "name": "transferOwnership",
      "outputs": [],
      "stateMutability": "nonpayable",
      "type": "function"
    },
    {
      "inputs": [
        {
          "internalType": "address",
          "name": "_token",
          "type": "address"
        },
        {
          "internalType": "uint256",
          "name": "_amount",
          "type": "uint256"
        }
      ],
      "name": "unwrap",
      "outputs": [],
      "stateMutability": "nonpayable",
      "type": "function"
    },
    {
      "inputs": [
        {
          "internalType": "address",
          "name": "_token",
          "type": "address"
        },
        {
          "internalType": "uint256",
          "name": "_amount",
          "type": "uint256"
        }
      ],
      "name": "withdrawExcess",
      "outputs": [],
      "stateMutability": "nonpayable",
      "type": "function"
    },
    {
      "inputs": [
        {
          "internalType": "address",
          "name": "_token",
          "type": "address"
        },
        {
          "internalType": "uint256",
          "name": "_amount",
          "type": "uint256"
        }
      ],
      "name": "wrap",
      "outputs": [],
      "stateMutability": "nonpayable",
      "type": "function"
    }
  ],
  "bytecode": "0x60806040523480156200001157600080fd5b506040516200107238038062001072833981016040819052620000349162000167565b8060405180604001604052806008815260200167466c6f776465736b60c01b815250604051806040016040528060048152602001634445534b60e01b815250816003908162000084919062000244565b50600462000093828262000244565b5050506001600160a01b038116620000c557604051631e4fbdf760e01b81526000600482015260240160405180910390fd5b620000d081620000f8565b5050600680546001600160a01b0319166001600160a01b039290921691909117905562000310565b600580546001600160a01b038381166001600160a01b0319831681179093556040519116919082907f8be0079c531659141344cd1fd0a4f28419497f9722a3daafe3b4186f6b6457e090600090a35050565b80516001600160a01b03811681146200016257600080fd5b919050565b600080604083850312156200017b57600080fd5b62000186836200014a565b915062000196602084016200014a565b90509250929050565b634e487b7160e01b600052604160045260246000fd5b600181811c90821680620001ca57607f821691505b602082108103620001eb57634e487b7160e01b600052602260045260246000fd5b50919050565b601f8211156200023f57600081815260208120601f850160051c810160208610156200021a5750805b601f850160051c820191505b818110156200023b5782815560010162000226565b5050505b505050565b81516001600160401b038111156200026057620002606200019f565b6200027881620002718454620001b5565b84620001f1565b602080601f831160018114620002b05760008415620002975750858301515b600019600386901b1c1916600185901b1785556200023b565b600085815260208120601f198616915b82811015620002e157888601518255948401946001909101908401620002c0565b5085821015620003005787850151600019600388901b60f8161c191681555b5050505050600190811b01905550565b610d5280620003206000396000f3fe608060405234801561001057600080fd5b50600436106101005760003560e01c806370a0823111610097578063a9059cbb11610066578063a9059cbb14610217578063bf376c7a1461022a578063dd62ed3e1461023d578063f2fde38b1461027657600080fd5b806370a08231146101cd578063715018a6146101f65780638da5cb5b146101fe57806395d89b411461020f57600080fd5b8063313ce567116100d3578063313ce5671461016b57806339f476931461017a57806368d5029b1461018f5780636e90013d146101ba57600080fd5b806306fdde0314610105578063095ea7b31461012357806318160ddd1461014657806323b872dd14610158575b600080fd5b61010d610289565b60405161011a9190610b55565b60405180910390f35b610136610131366004610bb8565b61031b565b604051901515815260200161011a565b6002545b60405190815260200161011a565b610136610166366004610be4565b610335565b6040516012815260200161011a565b61018d610188366004610bb8565b610359565b005b6006546101a2906001600160a01b031681565b6040516001600160a01b03909116815260200161011a565b61018d6101c8366004610bb8565b6104de565b61014a6101db366004610c25565b6001600160a01b031660009081526020819052604090205490565b61018d61053b565b6005546001600160a01b03166101a2565b61010d61054f565b610136610225366004610bb8565b61055e565b61018d610238366004610bb8565b61056c565b61014a61024b366004610c49565b6001600160a01b03918216600090815260016020908152604080832093909416825291909152205490565b61018d610284366004610c25565b61073f565b60606003805461029890610c82565b80601f01602080910402602001604051908101604052809291908181526020018280546102c490610c82565b80156103115780601f106102e657610100808354040283529160200191610311565b820191906000526020600020905b8154815290600101906020018083116102f457829003601f168201915b5050505050905090565b60003361032981858561077d565b60019150505b92915050565b60003361034385828561078a565b61034e858585610808565b506001949350505050565b600081116103ae5760405162461bcd60e51b815260206004820152601d60248201527f416d6f756e74206d7573742062652067726561746572207468616e203000000060448201526064015b60405180910390fd5b336000908152602081905260409020548111156104185760405162461bcd60e51b815260206004820152602260248201527f496e73756666696369656e74207772617070656420746f6b656e2062616c616e604482015261636560f01b60648201526084016103a5565b816104233383610867565b60405163a9059cbb60e01b8152336004820152602481018390526001600160a01b0382169063a9059cbb906044015b6020604051808303816000875af1158015610471573d6000803e3d6000fd5b505050506040513d601f19601f820116820180604052508101906104959190610cbc565b6104d95760405162461bcd60e51b8152602060048201526015602482015274151bdad95b881d1c985b9cd9995c8819985a5b1959605a1b60448201526064016103a5565b505050565b6104e66108a1565b816001600160a01b03811663a9059cbb6105086005546001600160a01b031690565b6040516001600160e01b031960e084901b1681526001600160a01b03909116600482015260248101859052604401610452565b6105436108a1565b61054d60006108ce565b565b60606004805461029890610c82565b600033610329818585610808565b600081116105bc5760405162461bcd60e51b815260206004820152601d60248201527f416d6f756e74206d7573742062652067726561746572207468616e203000000060448201526064016103a5565b60065460405163a18b506b60e01b81526001600160a01b038085166004830152849260009291169063a18b506b90602401602060405180830381865afa15801561060a573d6000803e3d6000fd5b505050506040513d601f19601f8201168201806040525081019061062e9190610cde565b6001600160a01b03160361067a5760405162461bcd60e51b81526020600482015260136024820152722737ba103a3432903a37b5b2b71037bbb732b960691b60448201526064016103a5565b6040516308299c0f60e21b8152336004820152306024820152604481018390526001600160a01b038216906320a6703c906064016020604051808303816000875af11580156106cd573d6000803e3d6000fd5b505050506040513d601f19601f820116820180604052508101906106f19190610cbc565b6107355760405162461bcd60e51b8152602060048201526015602482015274151bdad95b881d1c985b9cd9995c8819985a5b1959605a1b60448201526064016103a5565b6104d93383610920565b6107476108a1565b6001600160a01b03811661077157604051631e4fbdf760e01b8152600060048201526024016103a5565b61077a816108ce565b50565b6104d98383836001610956565b6001600160a01b03838116600090815260016020908152604080832093861683529290522054600019811461080257818110156107f357604051637dc7a0d960e11b81526001600160a01b038416600482015260248101829052604481018390526064016103a5565b61080284848484036000610956565b50505050565b6001600160a01b03831661083257604051634b637e8f60e11b8152600060048201526024016103a5565b6001600160a01b03821661085c5760405163ec442f0560e01b8152600060048201526024016103a5565b6104d9838383610a2b565b6001600160a01b03821661089157604051634b637e8f60e11b8152600060048201526024016103a5565b61089d82600083610a2b565b5050565b6005546001600160a01b0316331461054d5760405163118cdaa760e01b81523360048201526024016103a5565b600580546001600160a01b038381166001600160a01b0319831681179093556040519116919082907f8be0079c531659141344cd1fd0a4f28419497f9722a3daafe3b4186f6b6457e090600090a35050565b6001600160a01b03821661094a5760405163ec442f0560e01b8152600060048201526024016103a5565b61089d60008383610a2b565b6001600160a01b0384166109805760405163e602df0560e01b8152600060048201526024016103a5565b6001600160a01b0383166109aa57604051634a1406b160e11b8152600060048201526024016103a5565b6001600160a01b038085166000908152600160209081526040808320938716835292905220829055801561080257826001600160a01b0316846001600160a01b03167f8c5be1e5ebec7d5bd14f71427d1e84f3dd0314c0f7b2291e5b200ac8c7c3b92584604051610a1d91815260200190565b60405180910390a350505050565b6001600160a01b038316610a56578060026000828254610a4b9190610cfb565b90915550610ac89050565b6001600160a01b03831660009081526020819052604090205481811015610aa95760405163391434e360e21b81526001600160a01b038516600482015260248101829052604481018390526064016103a5565b6001600160a01b03841660009081526020819052604090209082900390555b6001600160a01b038216610ae457600280548290039055610b03565b6001600160a01b03821660009081526020819052604090208054820190555b816001600160a01b0316836001600160a01b03167fddf252ad1be2c89b69c2b068fc378daa952ba7f163c4a11628f55a4df523b3ef83604051610b4891815260200190565b60405180910390a3505050565b600060208083528351808285015260005b81811015610b8257858101830151858201604001528201610b66565b506000604082860101526040601f19601f8301168501019250505092915050565b6001600160a01b038116811461077a57600080fd5b60008060408385031215610bcb57600080fd5b8235610bd681610ba3565b946020939093013593505050565b600080600060608486031215610bf957600080fd5b8335610c0481610ba3565b92506020840135610c1481610ba3565b929592945050506040919091013590565b600060208284031215610c3757600080fd5b8135610c4281610ba3565b9392505050565b60008060408385031215610c5c57600080fd5b8235610c6781610ba3565b91506020830135610c7781610ba3565b809150509250929050565b600181811c90821680610c9657607f821691505b602082108103610cb657634e487b7160e01b600052602260045260246000fd5b50919050565b600060208284031215610cce57600080fd5b81518015158114610c4257600080fd5b600060208284031215610cf057600080fd5b8151610c4281610ba3565b8082018082111561032f57634e487b7160e01b600052601160045260246000fdfea2646970667358221220c19a09710df12531814c437fac1e03a1fa8d8e9bdb93f0575258b278c3e92ba764736f6c63430008140033",
  "linkReferences": {},
  "deployedLinkReferences": {}
}